:020000040000FA
:10600000E82A00102D72000035720000377200007F
:10601000397200003B7200003D7200000000000079
:106020000000000000000000000000003F720000BF
:1060300041720000000000001BA20000C3740000B9
:10604000477200004772000047720000477200006C
:1060500047720000256E0000EF6F0000A171000084
:10606000477200004772000047720000477200004C
:10607000477200004772000047720000477200003C
:10608000477200004772000047720000477200002C
:10609000477200004772000047720000477200001C
:1060A000477200004772000047720000477200000C
:1060B00047720000477200004772000047720000FC
:1060C00047720000DFF80CD004F074F80048004775
:1060D00011630000E82A001070477047704770474E
:1060E000704770477047704770477047A84909204C
:1060F0000870002002460B18401C5A741828FADB5E
:1061000000F098BB10B500F095FB0020A04C0146B4
:106110002218401C51741828FADB29229C490020BF
:1061200000F0C6FC142000F005FD2922984900204B
:1061300000F0BEFC0320974920700120887010BD3C
:1061400010B5954C54F8A00F40F0100044F86009C9
:10615000A06F40F01000A067206A40F008002062A5
:10616000206840F400702060206E40F0010020663E
:10617000A06F40F00100A067206C43F6E071084377
:106180002064E06D40F48050E065FFF7BBFF00F055
:10619000ACFD4FF4E13000F0A2FEE06F40F01000E3
:1061A000E067A06D40F48050A0654FF42F7000F0C0
:1061B000C1FC29227649002000F07AFC142000F06E
:1061C000B9FC29227249002000F072FC606D71490F
:1061D00000F01F00401CC8707049C80641600321D0
:1061E0000170E06D40F02000E06510BDF0B5694938
:1061F0004878002832D06648674B0122B0F80F502B
:10620000B0F80D404E78012E08D0CE88761CB6B27C
:10621000CE80A54223D9B5422CD32DE00020651EA7
:1062200045FA00F616F0010F08D0D3F89860471D24
:1062300002FA07F73E43C3F8986007E0D3F89C6082
:10624000471D02FA07F73E43C3F89C60401CC0B2EA
:106250000728E5D3CC800D7102204870F0BD09D22B
:10626000B0F80B70B74200D2CA80CE88B54203D2D4
:10627000B44201D94A70C5E7B4B2601E087100206B
:10628000B4F1010444FA00F111F0010F08D0D3F881
:106290009810451D02FA05F52943C3F8981007E048
:1062A000D3F89C10451D02FA05F52943C3F89C104C
:1062B000401CC0B20728E5D3F0BDAA27354D364CA7
:1062C0007E074FF055084FF000094FF0010A4FF4D8
:1062D000FA7B377286F80880287830B1A06F40F0DA
:1062E0000800A06785F8009005E0E06F40F0080026
:1062F000E06785F800A0584603F074FBE9E7254CF9
:10630000FFF774FFA0786421484303F06BFBF7E7C5
:1063100010B501F02BF8FFF713FF0E2120A000F0BD
:1063200058FD03F096FF01F0F2FA22484FF47A711B
:106330000068B0FBF1F001F0D7F801231E4A0021FC
:10634000AFF2890003F029F803231C4A00211C48FE
:1063500003F023F804231B4A00211B4803F01DF817
:1063600005231A4A00211A4803F017F80623194A90
:106370000021194803F011F8002002F06AF80549DD
:10638000886018B101F086FB002010BD012010BD0F
:106390008C000010000000100080092048E8010077
:1063A0006F732072756E696E673D3D3D3D3D0D0A10
:1063B000000000001C000010B4120010B404001013
:1063C0004D660000B408001097660000B41000107D
:1063D00029670000B40C0010F366000070B50024BB
:1063E000064625460B4604E0641C284485B2A4B248
:1063F0005B1C18780028F7D12246304603F082FE55
:10640000301935550D2141700A218170E41CA0B26C
:1064100070BD2DE9F047D2B000260F4604464FF478
:106420009675B0464E964F96294603A8509603F0AF
:1064300082FE00220220215C0D2903D12118497817
:106440000A2904D0401C80B2A842F4D31DE02118D0
:10645000401E11F8013C0104090C16D0002004E094
:10646000255C401C2A4492B280B28842F8D3D0B254
:1064700098420AD1C91C0D042D0C06D062A12046F9
:1064800003F070FE48B1634998E0002000F082F903
:106490004FF0FF3052B0BDE8F0875FA1204603F017
:1064A00061FEDFF8789130B3A0786FF02F0A4328AF
:1064B00004D053281BD0522859D053E02079617959
:1064C000303800EB80020AEB42021144CAB2617A12
:1064D000A37A303901EB81010AEB4100191809EB6D
:1064E000020000F8101F012100F06EFA8AE0082671
:1064F000A5F1060882E04AA1204603F033FE0028F9
:106500007ED149A1204603F02DFE00287AD101E07A
:1065100000262CE045A1204603F024FED0B160798E
:10652000412814D0303800EB80004000A179303889
:10653000084410F0FF0340D009EB0300007CC0B119
:1065400039A13CA2CDE90021029037A217E0002535
:106550004E4619E038A1204603F004FE10B100F0C9
:106560002DF904E0012000F015F96FF00106304626
:1065700090E72DA02FA1CDE900102BA202932FA10F
:1065800003A803F079FE18E0701927A1407C29A226
:1065900008B1029001E0CDF80880CDE900216B1C24
:1065A00021A226A14EA803F067FE4EA903A803F07E
:1065B000CDFD6D1CEDB2182DE6D303A92046FFF7E3
:1065C0000DFF3860A4E7A15DA0193039427801EBD6
:1065D00081030AEB43031A440379C078D2B23038FE
:1065E00000EB80000AEB4000191809EB020000F8EC
:1065F000101F012100F0E8F9B61DF6B2464500E093
:1066000000E0E0DB3D6083E747455456455253497F
:106610004F4E00000CA600004F4B00008C000010F5
:106620005345545357000000434800004745545316
:10663000570000007E00000052535400257325309F
:106640003264257325732530326400001CB54FF485
:10665000FA7003F0C7F94B4C6FF001056E1001AAF8
:106660000021206801F073FF69464748FFF7D1FE1B
:10667000A8420AD0B04208D038B10128EFD1009822
:1066800081B2414800F07AFCE9E7009881B23E48C7
:1066900000F09FFBE3E73C4C00F0B2FB2070532876
:1066A00007D0472805D0432803D0522801D04F28CF
:1066B000F2D1002514F1010400F0A2FB04F8010B53
:1066C0000A2812D06D1CEDB2322DF5D32D4C206866
:1066D00001F0AEFE2C49206801F0D5FFDBE700BFDA
:1066E0006D1C04F8010BEDB200E00020302DF7D353
:1066F000ECE71CB54FF4FA7003F074F9234C4FF03B
:10670000FF3501AA0021206801F021FF69462048D9
:10671000FFF77FFEA842F4D00028F2D1009881B2A2
:10672000194800F056FBECE7194C00BF00F01EFDC5
:106730002070532805D0472803D0432801D0522881
:10674000F4D1002514F1010400F02EFC04F8010B33
:106750000A2812D06D1CEDB2322DF5D30B4C2068F7
:1067600001F066FE0A49206801F08DFFDCE700BFFA
:106770006D1C04F8010BEDB200E00020302DF7D3C2
:10678000ECE7000008000010B81200100C00001028
:10679000E41300103EB5054603F01EFD04462B46EB
:1067A0001DA21FA1684603F067FDC1B2684600F054
:1067B00010FB204603F014FD3EBD70474FF224410C
:1067C0000807416003210170C721491E0229FCD836
:1067D000AA210172552101721348401E0228FCD8DB
:1067E00070471CB50021114A009108460191131809
:1067F000401CC0B259741828F9D30C481821113024
:1068000000F0E2F80AA16846FFF7E8FDC1B2684669
:1068100000F0DFFA1CBD00004552524F520000004C
:106820002573256400000000BED401008C00001018
:106830004F4B000070B54FF400110020C1F89800D4
:10684000B748B84A0068B0FBF2F2521EC1F8942073
:10685000B54B4FF47A74B0FBF3F2C2EB0212B2FB09
:10686000F4F5B0FBF3F2B0FBF3F002EBC206C6EBBB
:106870008212C0EBC000B2FBF4F200EB8000B0FB70
:10688000F4F04E136D1C06EB02224B112A4303EB6E
:1068900000401043C1F8900070BD2DE9F04FDFF8C3
:1068A0008C9293464FF0A055099FDA46C9F80050E4
:1068B000012B02D0022B03D005E0C40703D0FEE772
:1068C000840700D0FEE74FF4001400F03F05C4F841
:1068D0008450DFF858E20025AEF1080E62E0DBB12B
:1068E000012B22D00526C4F880605AF8046BC4F846
:1068F0008860001D80B27646D6F800C04FEA9C6CD6
:106900005FEACC7CF8D04FF08068C9F8008040285E
:1069100014D34FF0010813E00326C4F8806012F886
:10692000016BC4F88860401CE4E70426C4F880606A
:106930003BF8026BC4F88860801CDBE74FF000086E
:10694000A7F1010C654502D14FF0010C01E04FF0B9
:10695000000C58EA0C081AD04FF0805CC846C9F801
:1069600000C04FEA816C4FEA1C5CC4F884C04FF051
:10697000060CC4F880C000BFD6F800C04FEA1C7CEB
:106980005FEACC7CF8D04FF08056C8F80060402811
:1069900007D30020491C89B2C4F884003E2900D9DD
:1069A00000216D1CBD429AD3BDE8F08F18B5604B35
:1069B0000092C01A80B284090A4600F03F0000230A
:1069C0002146FFF76AFF18BD18B5594A0091821A8F
:1069D00092B2910902F03F04024600232046FFF7DD
:1069E0005CFF18BD2DE9F04F504F92464FF0A05478
:1069F000099DD1463C6001F03F04064664F39F16B2
:106A00004FF40014C4F884604FF0080B4FF0090EE7
:106A10003BB1012B08D00A26C4F88060860708D055
:106A2000FEE7C4F880B004E0C4F880E0C60700D0F8
:106A3000FEE700262BE06BB3D4F88C80012B2FD01F
:106A400049F8048B001DDFF8E4C080B2ACF1080CFB
:106A5000DCF800804FEA98685FEAC878F8D04FF019
:106A6000806CC7F800C0402810D30020491C89B2B0
:106A700001F03F0C80466CF39F18C4F884809BB1F2
:106A8000012B13D04FF00A0CC4F880C0761CAE4224
:106A9000D1D389E7D4F88CC002F801CB401CD2E7EF
:106AA0002AF8028B801CCEE7DC46EDE7F446EBE7E4
:106AB00018B5840900920A4600F03F0000232146E1
:106AC000FFF790FF18BD30B54FF400130321C3F852
:106AD00080100021154A0C46B2F10802C3F8884024
:106AE0001568AD0EED07FBD0491C4029F6D30F4CBD
:106AF0004FF0805121608006000DC3F8840006200D
:106B0000C3F880001068000FC007FBD030BD4FF401
:106B10000011012800D00020C1F898007047000043
:106B20001C000010D8B8050040420F00E80F2000FC
:106B30008C000010002242F2283306E00021491C9C
:106B400089B29942FBD3521C92B28242F6D370476B
:106B5000002241F2301306E0521C92B20021491C7F
:106B600089B29942FBD98242F6D370472DE9F041B0
:106B70001E4617460D46B0B11C2D14D3044603F033
:106B80002BFB183DABB2E38104F118010B442160EB
:106B9000C4E901130021A181C4E9047603F020FBBC
:106BA0000120BDE8F081FF20FBE770B50646002517
:106BB0000C4603F011FBA18919B121680125097860
:106BC000317003F00DFB284670BD2DE9F0410746FA
:106BD000FF2501B30C4603F0FFFA0646A08980B1F9
:106BE0002068007838702068401C2060A1688842C6
:106BF00002D304F118002060A089401EA081012565
:106C000006E0226904251AB1214638469047054618
:106C1000304603F0E5FA2846C3E72DE9F0410F4678
:106C2000FF2510B3044603F0D7FA0646A189E08990
:106C300081420FD2606807706068401C6060A16884
:106C4000884202D304F118006060A089401CA08132
:106C5000012507E06369082523B101223946204652
:106C600098470546304603F0BBFA284699E770B5C9
:106C700005004FF0000404D003F0AEFAAC8903F035
:106C8000AFFA204670BD70B505004FF0000404D087
:106C900003F0A2FAEC8903F0A3FA204670BD10B508
:106CA00000280CD0044603F097FA04F11801216083
:106CB00061600021A181BDE8104003F091BA10BDD0
:106CC00070B50D460646FFF7DEFF044602E00A20D7
:106CD00002F088FE3046FFF7CAFFA042F7D22946ED
:106CE0003046BDE87040FFF798BF6B4910B551F8CA
:106CF000C42F42F008020A60684A01219160D16005
:106D0000674909780A2920D2DFE801F01F05080B3E
:106D10000E1114171A1D4FF4166016E04FF496501A
:106D200013E04FF4165010E04FF461500DE04FF4B3
:106D300096400AE04FF4164007E04DF6C02004E00C
:106D40004FF4614001E04FF4E130564980220A736C
:106D5000554A12681209B2FBF0F0020A0A71087073
:106D60000320087305204860872008724FF0E02157
:106D70002020C1F80001AFF2B703C10000224B4848
:106D8000FFF7F4FEFF284FF0000006D002F0CAF82B
:106D900047490028086000D0012010BD38B50146E1
:106DA0004248FFF73AFF03F017FA3E4C0546207DB4
:106DB00080060AD53D496846FFF707FF9DF80000A9
:106DC0002070606840F002006060284603F008FA16
:106DD00038BD70B50D46044604E000BF14F8010B41
:106DE000FFF7DCFF6D1EADB2F8D270BD10B50446E2
:106DF00002E0641CFFF7D2FF20780028F9D110BD13
:106E000038B5284C2A4D08E0606840F00100606009
:106E10006A460021286802F003F9207DC007F3D0FC
:106E2000207838BDF8B503F0D7F90746204E1D4C41
:106E30000DE000BF00F00E00022810D0042822D080
:106E4000062801D00C281ED0207D8DF80000A068F7
:106E5000C0B2C107EED0384603F0C2F9F8BD002534
:106E600012496846FFF7B1FE012808D0606820F09B
:106E7000020060606D1CEDB2102DF1D3E7E79DF8C4
:106E800000002070F6E7306802F05EF9606820F0DC
:106E900001006060DBE7000000C00F4000C002405E
:106EA0008C00001000C000402000001010150010E1
:106EB0001000001070B50D460646FFF7E4FE0446CC
:106EC00002E00A2002F08EFD3046FFF7D0FEA0421D
:106ED000F7D229463046BDE87040FFF79EBE6049B4
:106EE00010B551F8C42F42F010020A605D4A01212A
:106EF000D16311645C4980220A735C4A12681209EA
:106F0000B2FBF0F0020A0A71087003200873052032
:106F10004860872008724FF0E0214020C1F800014E
:106F2000AFF26F03810000225148FFF71FFEFF28D8
:106F30004FF0000006D001F0F5FF4E490028086030
:106F400000D0012010BD38B501464948FFF765FE65
:106F500003F042F9444C0546207D80060AD5444999
:106F60006846FFF732FE9DF800002070606840F030
:106F700002006060284603F033F938BD70B50D4655
:106F8000044603E014F8010BFFF7DDFF6D1EADB200
:106F9000F8D270BD10B5044602E0641CFFF7D3FFC1
:106FA00020780028F9D110BD38B52F4C314D08E0BC
:106FB000606840F0010060606A460021286802F0C5
:106FC0002FF8207DC007F3D0207838BD38B5264C87
:106FD000207DC00709D1606840F00100606025484D
:106FE0006A460121006802F01BF8207838BDF8B528
:106FF00003F0F2F807461F4E1B4C0CE000F00E00A9
:10700000022810D0042822D0062801D00C281ED037
:10701000207D8DF80000A068C0B2C107EED03846D0
:1070200003F0DEF8F8BD002511496846FFF7CDFDF5
:10703000012808D0606820F0020060606D1CEDB28D
:10704000082DF1D3E7E79DF800002070F6E73068DF
:1070500002F07AF8606820F001006060DBE7000071
:1070600000C00F4000C0024000000140200000109E
:10707000101600101400001070B50D460646FFF7FC
:1070800002FE044602E00A2002F0ACFC3046FFF7A4
:10709000EEFDA042F7D229463046BDE87040FFF72A
:1070A000BCBD5C4910B551F8C42F42F080720A6033
:1070B000594A01219162D162584980220A73584B82
:1070C0001B681B09B3FBF0F0030A0B710870032067
:1070D000087305204860872008724FF0E020C0F850
:1070E0000021AFF26B03002289154E48FFF73EFDE9
:1070F000FF284FF0000006D001F014FF4A49002895
:10710000086000D0012010BD38B501464548FFF7A2
:1071100084FD03F061F8414C0546207D80060AD5C8
:1071200040496846FFF751FD9DF8000020706068F7
:1071300040F002006060284603F052F838BD70B598
:107140000D46044604E000BF14F8010BFFF7DCFF16
:107150006D1EADB2F8D270BD10B5044602E0641CDD
:10716000FFF7D2FF20780028F9D110BD38B52B4C9D
:107170002D4D08E0606840F0010060606A46002123
:10718000286801F04DFF207DC007F3D0207838BD7E
:107190002248017DC90701D0007870470020704760
:1071A000F8B503F019F807461F4E1C4C0DE000BF60
:1071B00000F00E00022810D0042822D0062801D0AA
:1071C0000C281ED0207D8DF80000A068C0B2C10739
:1071D000EED0384603F004F8F8BD002511496846A2
:1071E000FFF7F3FC012808D0606820F0020060601F
:1071F0006D1CEDB2082DF1D3E7E79DF8000020707B
:10720000F6E7306801F0A0FF606820F001006060E0
:10721000DBE7000000C00F4000C0024000800940D2
:1072200020000010101700101800001006488047BA
:1072300006480047FEE7FEE7FEE7FEE7FEE7FEE75B
:10724000FEE7FEE7FEE7FEE76D730000C5600000A5
:10725000694810B5D0F804114FF00002CB0567491A
:1072600017D4D0F80C31DC07654B03D0D0F8A0411F
:1072700064061AD5D0F8044104F01F04B3FBF4F4FB
:107280000C60D0F8A84104F01F04B3FBF4F44C6088
:1072900032E0D0F88830DB0507D5D0F80C31DB07B9
:1072A00007D0D0F8A0315B0603D40A604A608A6038
:1072B0002AE0D0F88830524C03F01F035B1C634374
:1072C000D0F8044104F01F04B3FBF4F30B60D0F8D2
:1072D00088304B4C03F01F035B1C6343D0F8A8417C
:1072E00004F01F04B3FBF4F34B60D0F88830444C37
:1072F00003F01F035B1C6343D0F8004104F001045A
:10730000641CB3FBF4F38B60D0F80831DB05D0F8D4
:10731000083118D513F01F0303D0042B03D0062B1C
:1073200001D0CA6010BDD0F80C21D0F88820344BB1
:1073300002F01F02521CD0F808015A4300F01F004F
:10734000B2FBF0F008E09B05EBD5D0F80C21D2079A
:1073500004D0D0F8A80003E0C86010BDD0F88800C1
:10736000274A00F01F00401C5043F5E7224810B5A3
:107370002121C0F8A01100BFD0F8A0114906FBD50B
:107380000121C0F80C110922C0F88420C0F8801037
:10739000AA22C0F88C205523C0F88C30D0F8884041
:1073A0006405FBD52324C0F8A440C0F8A010C0F8A1
:1073B000AC20C0F8AC3000BFD0F8A8205205FBD5F7
:1073C00040F20112C0F8042140F20122C0F8082165
:1073D000C0F800110221C0F8A8110A49C0F8C41071
:1073E0005110C0F8C81145F23A01016006494FF446
:1073F000C040086010BD000000C00F401C0000101D
:10740000001BB700DE87280408ED00E03E4900209D
:10741000088070477047FEF760BEFEF75FBEFEF75C
:107420005EBEFEF75EBE4FF080731360131F1860E0
:10743000A2F10800354B0360001F4FF012330360C8
:10744000001F4FF003330360001F4FF0023303604F
:10745000001F5B100360001F0160001F4FF011311F
:107460000160001F19010160001F4FF00931016028
:10747000001FD9000160001F4FF007310160001F9D
:107480004FF006310160001F4FF005310160980098
:1074900042F83C0D10467047FEF724BEFEF723BEAF
:1074A00010B5FEF721FE18480188491C89B20180F9
:1074B000642905D300210180BDE8104002F045BDDC
:1074C00010BD10B502F088FE114904460878401C32
:1074D0000870FEF70AFE00F009FB204602F080FE6D
:1074E000BDE8104000F07FBA4FF0E021401E486137
:1074F000084AFF201070086940F00500086108691B
:1075000040F00200086170472C000010BB99000099
:107510003200001023ED00E070470000014600201B
:1075200002E0401CC0B2491C0A78002AF9D1704719
:1075300070B50E460500144605D036B1FE48807879
:1075400028B111200DE004200BE00C2009E0287880
:10755000012809D0022807D0032805D0042803D029
:1075600001201070002070BD02F036FE03466869ED
:107570003060FFF7D3FF0546184602F031FE0020C9
:107580002070284670BD70B50E460500144605D023
:1075900036B1E948807828B112200DE004200BE0D4
:1075A0000C2009E02878012808D0022806D00328FA
:1075B00004D0042802D00120107070BD02F00CFE2F
:1075C0006E6102F00DFE0020207070BD70B510F8E5
:1075D000383F84784578086809E0C618F27AAA43EB
:1075E000F27202D1827AA243827251F8040F00280B
:1075F000F3D170BD70B502F0EFFDCF4C0546A07819
:1076000098B9E07888B900F0C7FBCC49607951F8A7
:107610002010A1622279904207D0C86B401CC86339
:10762000E068401CE06002F0EEFD2846BDE87040D6
:1076300002F0D6BDF0B5C04A0021136AC3E90710B5
:1076400001680FE093F8385001F10B0493F839709A
:107650002E5D3E432E558C7A93F83A502C438C7213
:1076600050F8041F0029EDD1106AB34C90F838305F
:10767000343490F83950E15CA943E15404D190F8D6
:107680003A10907988439071F0BD2DE9FF5F5FEA71
:10769000000A0E9F16460C464FF0040022D0DAF87E
:1076A0000010F9B1F4B1EEB14FF00009C4F8009048
:1076B0005046DAF800100AE00978012905D00229BD
:1076C00003D0032901D001200CE050F8041F002949
:1076D000F2D19948817809B1022003E09648C07838
:1076E00028B10D203870002004B0BDE8F09F02F0F2
:1076F00073FD00238346984619465246DAF8005037
:107700003FE02878012811D0022818D0032801D0A2
:10771000584684E0288930B1401E288120C40123C6
:1077200046F8049B24E041F0010128E0686818B1A4
:1077300001C6C5F8049019E041F002011FE0686835
:10774000B0F816C0BCF1000F17D0036903F1040CA8
:10775000C0F810C01B6808C6D0F808C003696345AC
:1077600001D143680361C38A5B1EC38220C4012325
:1077700008F101001FFA80F801E041F0040152F81D
:10778000045F002DBDD1012B1FD06B4841F080015B
:10779000006A10F8342F0A4300F8042980F8059095
:1077A000039901605046FFF745FF584602F018FD67
:1077B000FFF720FF02F010FD84465F48006A90F852
:1077C000351051B1022914D107E04D465846C4F88E
:1077D000009002F005FD3D7040E0C56935B1E4E878
:1077E000015908F101001FFA80F805E0012180F835
:1077F00035105146FFF7EAFE4F49086A90F83520E8
:107800002AB1022AC6F8009018D00A2017E02A7878
:10781000012A0ED0022A0CD0032A07D0604602F0BB
:10782000DFFC0120C4F80090387017E0C6F8009023
:1078300001E0406A306087F8009001E00E20387067
:10784000096A604681F8349081F8359041F81C9FB0
:10785000C1F80490C1F8089002F0C2FC404643E72A
:107860007CB5364D00246946204601F0AEFF58B97C
:1078700055F8240040B1012806D0D0E9021201EBEE
:10788000820181640199C164641CE4B23F2CEAD98D
:107890007CBD294C02E0C82002F0A4F860780028E2
:1078A000F9D0642160690025B0FBF1F0606118B97E
:1078B0002570FF2001F0C8FF02F08EFCE169C4E9E9
:1078C000061502F08DFCD4E90510B0FBF1F0C0F113
:1078D00064002070FFF7A5FDFFF7C2FF642002F0EF
:1078E00081F8E9E7144C00BF02F076FCE169491C1D
:1078F000E16102F075FCFFF792FDF5E7002203E07D
:10790000491E00F8012B89B20029F9D1704730B522
:1079100087B0FFF77BFD0848002404638470C470BF
:107920000472C471C460C461846144614470847130
:10793000214600F1340203E030000010701B0010FB
:107940005454491CC9B20829F5D3047144718462A6
:10795000046200F052FA00F02BFA00F045FD00F04E
:10796000FAFF01F0ACFA02AA0325202082E83100D8
:10797000FA494FF6FF703F2301F17C02CDE9000187
:107980000021AFF29F0001F055FD05AAF4A13F20B0
:1079900001F0A6FE02AA402082E83100F4494FF629
:1079A000FE703E2301F1FC02CDE900010021AFF29F
:1079B0001D1001F03FFD05AAEEA13E2001F090FE52
:1079C00002F00CFBFFF726FD07B0BDE83040FFF7E3
:1079D000A3BDEC49C879012804D18878FF2801D2D9
:1079E000401C8870704770B5E64CE079012823D1BF
:1079F00002F0F2FB0546A07820B1401E10F0FF0017
:107A0000A07014D1E07890B900F0C6F9D34861793C
:107A1000803050F82100A0622279914207D0C16BDA
:107A2000491CC163E068401CE06002F0F1FB28469D
:107A3000BDE8704002F0D4BB70BD10B5D14CE07908
:107A400001280CD102F0C8FBA17821B9E178FF2907
:107A500001D2491CE170BDE8104002F0C1BB10BD6D
:107A600010B5C84CE079012813D102F0B5FBE178DC
:107A700031B1491E11F0FF01E17001D1A17819B1B6
:107A8000BDE8104002F0ACBB02F0AAFBBDE810401C
:107A9000B0E510BD10B5BB4CE07900280DD100F069
:107AA0007BF9AE4960798031207151F82000A062E5
:107AB0002062BDE8104002F096BB10BD10B5022058
:107AC00001F090FF02F088FBAE4C0021E16102F072
:107AD00087FB642001F086FF02F07EFBE1696161B3
:107AE00001216170BDE8104002F07ABB2DE9F04140
:107AF000FFF7D6FC02F070FBA24D296B491C2963ED
:107B000002F06EFBE87901283BD1687A0126002754
:107B100020B1012835D0022802D06F72EC6A2CE027
:107B20006E72FBE702F058FB216B19B3491E21630B
:107B300020D194F8341011F0370F06D001F0C801AD
:107B400084F8341084F8356001E084F8357094F8D6
:107B5000341009070ED494F83A10AA791143A97188
:107B6000884994F83820343194F839C08B5C43EA62
:107B70000C038B54646902F033FB94F836003F2801
:107B8000D0D1BDE8F08140F223107047704710B5A6
:107B900090F8382090F839408B18DA7AA243DA72DC
:107BA00004D18A7A90F83A0082438A7210BDF0B507
:107BB0000546807A744C0027205C2E18F67AA45D66
:107BC00004EBC004E6B2654C803454F826402763C9
:107BD000616294F83410914384F8341084F835309D
:107BE00009070BD4674994F83A208B791A438A71B4
:107BF000343194F839300A5C1A430A542946204635
:107C0000FFF7C5FF216A19B12046FFF7DFFCE561E8
:107C10003046F0BD30B55B4900F10B020B6A43F80A
:107C20001C0F1C7F5B7FA55C1D43A5540A6A837AE9
:107C300092F83A402343837292F8380001F13404F9
:107C400092F83950235CAB43235404D192F83A2084
:107C500088799043887130BD0022827211464318A2
:107C6000491CC9B2DA720829F9D3704706E000BF8F
:107C700011F8013B521E00F8013B92B2002AF7D1E5
:107C800070472DE9F05F9846DDE90ABA91460D4646
:107C9000074602F0A1FA3B4E746A002C78D0616965
:107CA0001C34716202F09CFA44F81C5CA776002533
:107CB00025766576656144F810BC44E906A90C9800
:107CC00024F80C0C24F80A8CE577FA08227707F0E0
:107CD0000701012000FA02F2E176A277884060777E
:107CE00025606560E560A5602562A562656227A0E4
:107CF000E562C4E90C500020B4F11C0404EB8001DF
:107D0000401C4D6510F0FF00F8D02046FFF7C6FB81
:107D10002046FFF780FB02F05FFA01460F488030F3
:107D200040F82740F06AC4E9050500B18461F462B7
:107D300094F83A00B2791043B071124814F8382F11
:107D400034306478835C23438354307A401C30722F
:107D5000084602F045FA0020C7E419E0F01A0010C6
:107D600075432F4F532D49492049646C650000002D
:107D7000F019001075432F4F532D4949205374615A
:107D8000740000003000001053A600003F00000007
:107D900002F026FA4220A8E430492F4A01F13403C8
:107DA0008879105C1B5CD25C02EBC00048717047A4
:107DB00010B54FF4F0712A48FFF7A0FD00202849C4
:107DC0000346421C00EB400094B201EBC00004EB00
:107DD000440401EBC4040370446022A4446190B2E3
:107DE0001328EED300EB400001EBC0001DA203708E
:107DF000436042611948016110BD10B54FF4F26152
:107E00001948FFF77BFD4FF480711848FFF776FDA6
:107E1000154A0020411C00EB400404EBC000CBB22B
:107E200003EB430402EBC00004EBC30302EBC30308
:107E300043610CA30365C8B21528EBD300EB4001E6
:107E400001EBC00002EBC00006A300210365416105
:107E500002484262C16210BD53A60000300000100B
:107E6000101800103F000000701C0010701B001064
:107E70002DE9F0410D4606001F46144607D0307824
:107E8000052806D0012018700020BDE8F0816E2082
:107E9000F9E714F0800002D022F08004012080462F
:107EA0000020387002F098F90246702104B3012CCA
:107EB00024D0022C08D0032C12D002F091F9002417
:107EC0006F2038702046E0E7308900EA0504AC42B4
:107ED0000AD01DE0A04319E0104602F081F9F1E755
:107EE000308910EA050413D0B8F1000FF4D0F1E79F
:107EF000308925EA0004AC4204D009E0308935EA33
:107F0000000405D0B8F1000FE6D020433081E3E74C
:107F10003970E1E770B50646F9480D46007818B1AA
:107F200010200870002070BD02F056F9F5490C6869
:107F300064B162680A600521217026810026F2A1E1
:107F40006660E16002F04CF92E7003E002F048F93F
:107F500072202870204670BDD0E9001200232AB19B
:107F6000116001B14A60806883627047C26800296D
:107F70005160F8D04B60F6E710B5024680680023E8
:107F80000363818590F8341011F0DF0180F834101C
:107F900080F8353005D000241046FFF7DDFF20467D
:107FA00010BDDA4990F83A300C7823430B7010F882
:107FB000383FD7494078CC5C0443CC540124EBE7EC
:107FC0002DE9F05F88460400154605D0CC480078BE
:107FD00020B10F20107021E06E20FBE720780528EB
:107FE00001D00120F6E702F0F7F8666881460EB18D
:107FF000012700E00027DFF80CA34FF0000BB8F1D9
:10800000000F06D0B8F1010F20D002F0E9F80720E8
:1080100003E037B102F0E4F8492028702046BDE8BB
:10802000F09FB9A0E06084F800B0DAF80010616059
:10803000A4F808B05E464846CAF8004002F0D0F8FE
:1080400018E000213046FFF797FF3668002EF8D180
:10805000ADA0E06084F800B0DAF800106160A4F828
:1080600008B05E464846CAF8004002F0B9F80FB1C1
:10807000FFF7C0FA2E700020D1E72DE9F0410E463F
:108080000500144605D036B19D48007830B1112066
:1080900002E06E2000E00C2010700AE002F09CF874
:1080A00007462878052806D0384602F099F80120BE
:1080B00020700020E9E6E8683060FFF72FFA0546F7
:1080C000384602F08DF8002020702846DDE670B5B5
:1080D0000E460500144606D03EB18948007830B1FE
:1080E0001220107070BD6E20FBE70C20F9E702F043
:1080F00073F82978052903D002F072F8012003E013
:10810000EE6002F06DF80020207070BDF0B5814D7A
:10811000059F2C6894F8346046F0200684F834609B
:10812000002684F835602763A1620A828B748C6014
:108130004268C860C1E90026426802B151604160EE
:108140002868734B90F8382090F83940995CA14327
:10815000995405D190F83A206C4801789143017008
:10816000F0BD2DE9F04F89B09A46129D91460F4619
:10817000040004D06248007818B1022099E06E2013
:1081800097E06548007808B10D2092E02078052836
:1081900001D001208DE019F0800F03D009F07F0994
:1081A000012600E0002602F017F802905FEA0900BD
:1081B0004FF0000B25D0012839D0022808D0B9F1A2
:1081C000030F13D0029802F00BF800206F215EE03D
:1081D000208900EA0708B8452FD116B120EA080027
:1081E00020814C480068A0F82C8017E0208900EA24
:1081F00007015FEA010820D066B120EA080020816B
:1082000008E0218927EA0108B84516D116B141EAEC
:10821000080121813F490968A1F82C80029801F0EA
:10822000DFFF85F800B0404609B0BDE8F08F218936
:1082300027EA01005FEA0008E8D14B463A4603A965
:108240002046CDF800A0FFF761FF029801F0C8FFBB
:10825000FFF7D0F901F0C0FFDFF8B8808446D8F806
:10826000000090F83570A7B180F835B05C4603A8DF
:10827000FFF772FED8F8000080F83440604601F045
:10828000AFFF0020022F01D00A2100E00E2129704B
:10829000CAE7878DB6B15FEA090010D001280ED079
:1082A000022809D0B9F1030F06D0604601F098FF0B
:1082B0006F2028700020B7E72089B84301E02089AB
:1082C00038432081604601F08BFF85F800B03846C6
:1082D000AAE710B501F080FF0E4909688C8D01F006
:1082E0007FFF204610BD2DE9F04117460D460400E2
:1082F0001E4613D02078052812D0012018702FE0D8
:10830000320000106C0000103F000000360000102A
:108310006400001050000010330000106E20EDE7E4
:1083200001F05AFF80462FB1012F06D001F058FF0F
:10833000712014E02089A84301E02089284320818E
:108340000027656828E0A87CA0B1012819D0022880
:1083500008D003280AD0404601F042FF6F20307059
:10836000002092E52189288A014007E02189288A96
:10837000014009E0288A218920EA0101884204D0CD
:1083800009E0298A2089814329B12846FFF7F4FDB5
:10839000012800D101272D68002DD4D1404601F0DD
:1083A0001FFF012F01D1FFF725F901F015FF2489E7
:1083B00001F016FF00203070204666E570B505001C
:1083C0000C4606D02878052805D00120087000202A
:1083D00070BD6E20FAE701F0FFFE2D8901F000FF6D
:1083E00000202070284670BD10B550210E48FFF7C0
:1083F00085FA00200C4A0346411C02EB00108CB2A7
:1084000002EB041403704460AFF20414C46088B239
:108410000428F1D302EB00100370AFF21411436093
:10842000C1600248026010BD002400106C00001002
:1084300070B5040002D02078012801D0002070BD62
:1084400001F0CAFE00216568616001F0C9FE28469E
:1084500070BD70B50546D348007808B1002070BDE6
:1084600001F0BAFED0490C680CB162680A6001F0F4
:10847000B7FE4CB10120207000202081CBA06560A8
:1084800060612046FFF7E8FB204670BD2DE9F0470C
:1084900088460400154605D02078012804D0012024
:1084A000107022E00420FBE7BE48007808B10F20DE
:1084B000F6E701F091FE0746A07A08B1012600E038
:1084C00000265FEA0800DFF8E0924FF0000806D0CF
:1084D000012824D0384601F083FE072004E03EB195
:1084E000384601F07DFE492028702046BDE8F0871F
:1084F000AEA0606184F80080D9F800106160A4F833
:10850000088046463846C9F8004001F069FE2E70E2
:108510001BE00023022219462046FFF748FBA07A01
:108520000028F6D1A1A0606184F80080D9F800206D
:108530006260A4F808803846C9F8004001F050FE97
:108540000EB1FFF757F885F800800020CEE72DE93F
:10855000F0478A460500144604D02878012803D045
:1085600001200AE0042008E08E48007808B10220CB
:1085700003E08F48007818B10D2010700020B5E797
:1085800001F02AFE6E68074600213EB18846384653
:10859000696001F025FE84F8008038E0DFF814926D
:1085A0008846D9F8000010F8342F42F00202027019
:1085B000417040F804AC2846FFF72CFB384601F028
:1085C0000FFEFFF717F801F007FE0746D9F8000085
:1085D00090F8351031B1022908D02946FFF7D7FAB3
:1085E0000A2004E0466A84F8008001E00E20207032
:1085F000D9F80010384681F8348081F8358041F888
:108600001C8FC1F80480C1F8088001F0E9FD3046F4
:108610006CE72DE9F0410F460500164605D0297894
:108620000120012903D010702BE00420FBE701F0AA
:10863000D3FD8046A87AF8B10024012F10D0022380
:108640001A4600212846FFF7B2FA0124404601F0FD
:10865000C7FDFEF7CFFF0E2030702046BDE8F08149
:1086600002231A4600212846FFF7A1FA641CA87AC3
:10867000E4B20028F4D1E9E7404601F0B1FD002062
:1086800030700020EAE770B50D46040005D035B122
:108690002078012805D0012070BD042070BD032082
:1086A00070BD01F099FD0646A07A58B10023022260
:1086B00029462046FFF77BFA304601F091FDFEF790
:1086C00099FF0AE0606820B1304601F089FD14206E
:1086D00070BD3046656001F083FD002070BD2DE95E
:1086E000F04115460E46040005D036B12078012829
:1086F00005D00120B2E70420B0E70320AEE701F087
:108700006BFD0746A07AD0B1E80709D0002302220A
:1087100031462046FFF74BFAA07A0028F6D105E053
:108720000023022231462046FFF741FA384601F085
:1087300057FD680701D4FEF75DFF00208EE76068F3
:1087400020B1384601F04CFD142087E738466660BA
:1087500001F046FDF1E770B50D46040005D035B1D6
:108760002078012805D0012070BD042070BD0920AB
:1087700070BD01F031FD0346A07A2873281D04F175
:108780000B010022521C11F8016BD2B200F8016BF0
:10879000082AF7D360682860184601F021FD002000
:1087A00070BD000032000010400000103F000000CB
:1087B00033000010500000102DE9F04104009046F5
:1087C0000E461F464FF0620001D0A10701D018707D
:1087D0001AE0022E01D25B20F9E7B8F1040F01D2B2
:1087E0005C20F4E701F0F8FC01466A4805680DB129
:1087F0006A680260084601F0F3FC1DB1731E214651
:1088000000220AE05A2038700020BDE8F08100BF45
:1088100001EB080008600146521C9A42F8D3002080
:1088200008602E61EE602C60C5E90148387028466A
:10883000EBE770B504000D4610D001F0CDFC014609
:10884000206970B16668401E326862602061084627
:1088500001F0C6FC00202870304670BD6020087012
:1088600004E0084601F0BCFC5D202870002070BDCB
:108870002DE9F0410D460600144607D045B14648A3
:10888000007838B1112010700020BEE76020FAE7B0
:108890000C20F8E701F0A0FC074670692860FEF79D
:1088A0003DFE0546384601F09BFC0020207028461E
:1088B000ABE770B50D460600144606D03DB136480C
:1088C000007830B11220107070BD6020FBE70C20E2
:1088D000F9E701F081FC756101F082FC0020207055
:1088E00070BD70B50D4604000AD05DB101F074FC96
:1088F000D4E903128A4207D301F072FC5E2070BDF6
:10890000602070BD5F2070BD61682960656021696D
:10891000491C216101F064FC002070BD70B50C465B
:10892000050014D0ACB101F057FC296821606968DA
:108930006160A968A160E968E1602969216101F0CD
:108940004FFCD4E90301401A6061002070BD602033
:1089500070BD612070BD10B578211048FEF7CEFFC4
:108960000E49002000EB400201EBC20202F11803A5
:108970005360401C0AA380B253610428F2D300EB79
:10898000400001EBC0000022426005A242610148A4
:10899000016010BD70000010320000105024001063
:1089A0003F00000070B505000C4606D0287802286C
:1089B00005D001200870002070BD0420FAE701F006
:1089C0000BFC6A680146D08A70B11369181D1061EA
:1089D0001D68D38A5B1ED3829368984201D1506888
:1089E00010610020207002E01F2020700025084642
:1089F00001F0F6FB284670BD2DE9F0410746FE4820
:108A00008846007810B10020BDE8F08101F0E4FB59
:108A1000FA4E34680CB16168316001F0E1FB14B3C7
:108A200001F0DAFBF6490D68BDB12A680A6001F071
:108A3000D7FB07EB8800C5E90170EF602F61A5F84F
:108A400014800020E882022121702081EDA0656061
:108A500060612046FFF700F905E03168616034602D
:108A600001F0BEFB00242046CEE72DE9F047884602
:108A70000400154605D02078022804D0012010708B
:108A800024E00420FBE7DC48007808B10F20F6E77B
:108A900001F0A2FB0746A07A08B1012600E00026FB
:108AA0005FEA0800DFF85883DFF850A34FF00009B1
:108AB00006D001282AD0384601F092FB072004E0B6
:108AC0003EB1384601F08CFB492028702046BDE8B5
:108AD000F087CCA060616168D8F800204E460A603B
:108AE000C8F8001084F80090DAF800106160A4F86B
:108AF00008903846CAF8004001F072FB2E7022E060
:108B00000023042219462046FFF751F8A07A0028D6
:108B1000F6D1BCA060616068D8F800200260C8F897
:108B2000000084F80090DAF800206260A4F8089051
:108B3000C8463846CAF8004001F052FB0EB1FEF7B5
:108B400059FD85F800800020C1E710B5040004D06D
:108B50002078022803D0012010BD042010BD01F0B0
:108B60003BFB014660684268C26002610022C2822B
:108B7000084601F035FB002010BD2DE9F04789467D
:108B80000600154604D03078022803D001200AE000
:108B9000042008E09848007808B1022003E09A48D1
:108BA000007818B10D201070002090E701F014FB40
:108BB000074670680024C18A81B10269111D0161F4
:108BC0001668C28A521EC2828268914201D14168EF
:108BD0000161384601F004FB2C7036E0DFF82C828E
:108BE000D8F8000010F8341F41F0040101704470FF
:108BF00040F8049C3046FFF70DF8384601F0F0FAD3
:108C0000FEF7F8FC01F0E8FA0746D8F8000090F803
:108C1000351039B1022908D03146FEF7B8FF0026D9
:108C20000A2004E0466A2C7002E000260E2028701C
:108C3000D8F8000080F8344080F8354040F81C4FE8
:108C400044608460384601F0CBFA30463FE72DE9B6
:108C5000F0410F460500164605D02978012002296B
:108C600003D010702AE00420FBE701F0B5FA80463B
:108C7000A87AF0B10024012F0FD002230422002192
:108C80002846FEF794FF0124404601F0A9FAFEF7BA
:108C9000B1FC0E2030702046B6E6022304220021EB
:108CA0002846FEF784FF641CA87AE4B20028F4D1B9
:108CB000EAE7404601F094FA002030700020A3E675
:108CC00070B50E46040004D02078022803D001209D
:108CD00070BD042070BD01F07FFA0546A07A58B13E
:108CE0000023042231462046FEF761FF284601F0AA
:108CF00077FAFEF77FFC19E06068C18A828A9142A8
:108D000004D3284601F06CFA1E2070BDC1680A1D0C
:108D1000C2600E60C18A491CC182D0E902128A4237
:108D200001D14168C160284601F05AFA002070BDA7
:108D300070B50E46040004D02078022803D001202C
:108D400070BD042070BD01F047FA0546A07A58B105
:108D50000023042231462046FEF729FF284601F071
:108D60003FFAFEF747FC18E06068C18A828A9142A8
:108D700004D3284601F034FA1E2070BD4268016910
:108D8000914201D181680161091F01610E60C18AB0
:108D9000491CC182284601F023FA002070BD2DE94C
:108DA000F04114460D46070004D03878022803D05D
:108DB000012029E6042027E601F00EFA0646B87ADB
:108DC00030B3E00709D00023042229463846FEF7D5
:108DD000EEFEB87A0028F6D105E0002304222946E9
:108DE0003846FEF7E4FE304601F0FAF9600701D498
:108DF000FEF700FC002007E63200001040000010E3
:108E0000740000103F0000003300001050000010FC
:108E10007B68D88A998A884204D3304601F0E0F909
:108E20001E20F1E5A00709D559681869884201D1CB
:108E300098681861001F1861056009E0D868011D75
:108E4000D9600560D3E90201814201D15868D86038
:108E5000D88A401CD882304601F0C2F9CAE770B502
:108E60000C46050005D034B12878022805D0012031
:108E700070BD042070BD092070BD01F0ADF903463E
:108E8000A87A207405F10B0004F108025FF00001DC
:108E9000491C10F8016BC9B202F8016B0829F7D31D
:108EA0006868C18A09B1016909682160C18AA18025
:108EB000808AE080184601F093F9002070BD10B55B
:108EC00060210D48FEF71AFD0B4A0020411C8BB2B1
:108ED00000EB400003EB430302EBC30342F83030E6
:108EE00088B20328F2D300EB4000002142F8301092
:108EF0000248026010BD0000C82400107400001079
:108F000070B5050002D02878032801D0002070BD7C
:108F100001F062F92C890CB1611E298101F060F920
:108F2000204670BD70B50546BF48007808B10020E6
:108F300070BD01F051F9BD490C680CB162680A605E
:108F400001F04EF94CB103202070258100206060B3
:108F5000B7A060612046FEF77FFE204670BD2DE978
:108F6000F04788460400154605D02078032804D031
:108F70000120107022E00420FBE7AB48007808B124
:108F80000F20F6E701F028F90746A07A08B101267C
:108F900000E000265FEA0800DFF890924FF000083A
:108FA00006D0012824D0384601F01AF9072004E041
:108FB0003EB1384601F014F9492028702046BDE83A
:108FC000F0879BA0606184F80080D9F80010616090
:108FD000A4F8088046463846C9F8004001F000F978
:108FE0002E701BE00023012219462046FEF7DFFD0C
:108FF000A07A0028F6D18EA0606184F80080D9F8AC
:1090000000206260A4F808803846C9F8004001F0EA
:10901000E7F80EB1FEF7EEFA85F800800020CEE703
:109020002DE9F04789460600144604D0307803281D
:1090300003D001200AE0042008E07B48007808B152
:10904000022003E07B48007810B10D201070B6E7D5
:1090500001F0C2F807463089002530B1401E30814A
:10906000384601F0BDF82570A9E7DFF8CC81D8F8C3
:10907000000010F8341F41F001010170457040F804
:10908000049C3046FEF7C6FD384601F0A9F8FEF70D
:10909000B1FA01F0A1F80746D8F8000090F83510B1
:1090A00031B1022906D03146FEF771FD0A2002E0F7
:1090B000257001E00E202070D8F8000080F83450B0
:1090C00080F8355040F81C5F45603846BDE8F047F1
:1090D00001F086B82DE9F0410F460500164605D08F
:1090E00029780120032903D010702BE00420FBE72E
:1090F00001F072F88046A87AF8B10024012F10D050
:109100000223012200212846FEF751FD012440469A
:1091100001F066F8FEF76EFA0E2030702046BDE8CA
:10912000F0810223012200212846FEF740FD641C45
:10913000A87AE4B20028F4D1E9E7404601F050F8FB
:10914000002030700020EAE770B5040004D02078D9
:10915000032803D0012070BD042070BD01F03CF84D
:109160000546A07A58B10023012219462046FEF791
:109170001EFD284601F034F8FEF73CFA09E020898C
:109180004FF6FF71884206D2401C2081284601F02C
:1091900027F8002070BD284601F022F8332070BD6A
:1091A00070B50D46040005D035B12078032805D0F0
:1091B000012070BD042070BD092070BD01F00CF8C5
:1091C0000346A07AA872A81C04F10B015FF000020C
:1091D000521C11F8016BD2B200F8016B082AF7D3C8
:1091E00020892880184600F0FBFF002070BD70B574
:1091F0000E460400154605D02078032804D001202F
:10920000107070BD0420FBE700F0E6FF002129701C
:10921000218939B9A17A29B149212970BDE8704065
:1092200000F0DEBF2681F9E7320000104000001098
:109230003F00000033000010500000102DE9F05FE7
:109240000C4605463F2801D3FF2D01D13F2C02D308
:109250002A20BDE8F09F00F0BFFF8246F74850F893
:10926000241021B1504600F0BBFF2820F1E7FF2D6C
:1092700003D1F349096891F8365050F8252022B3FC
:10928000012A27D0E108012304F0070E03FA01F6B2
:1092900003FA0EF303F0FF09002340F8253040F8ED
:1092A000242092F83870E74892F8395092F83AB092
:1092B00010F807C0F6B21CEA050F20D03CEA050CF6
:1092C000E14B00F807C00AD00FE0504600F088FFDD
:1092D0002920BEE7504600F083FF4320B9E793F80A
:1092E00000C02CEA0B0C83F800C093F800C04CEAD5
:1092F000060C83F800C0435C43EA09034354D06979
:1093000098B100EB070C9CF80B30AB438CF80B309A
:1093100003D1837A23EA0B038372837A3343837204
:109320000844C37A43EA0903C372136A13B3186883
:109330001EE000BF00EB070898F80BC03CEA050CE4
:1093400088F80BC005D190F80AC02CEA0B0C80F805
:109350000AC090F80AC04CEA060C80F80AC008441B
:1093600090F80BC04CEA090C80F80BC053F8040FBE
:109370000028DFD102F8364F5046917082F801E0A4
:10938000167182F8039000F02BFFB0480078012896
:1093900001D1FEF72FF900205BE72DE9FE431C46C3
:1093A00015460F4680463F2B02D92A20BDE8FE8392
:1093B00000F012FFA649097819B100F011FF3C2016
:1093C000F4E79E4E56F8241019B100F009FF28204A
:1093D000ECE7012146F8241000F002FF00232A46A2
:1093E00039464046FEF71FF80025014600950195D5
:1093F0002B462A4620460295FEF743FC070007D07D
:1094000000F0EAFE46F8245000F0EAFE3846CDE7C8
:109410008E4800780128F9D1FEF7ECF8F6E7D3077B
:1094200007D0920705D50022002902D004C0491EAA
:10943000FAE770472DE9FF4F83B01C46DDE913863C
:10944000DDE9119792468B463F2B03D92A2007B0BE
:10945000BDE8F08F00F0C0FE7D49097819B100F039
:10946000BFFE3C20F3E7754D55F8241019B100F00C
:10947000B7FE2820EBE7012145F8241000F0B0FEEC
:10948000324639464846FFF7CAFF334652465946E8
:109490000398FDF7C8FF0097CDE9018601464A46CB
:1094A0002046109BFEF7EDFB060008D000F094FE6E
:1094B000002145F8241000F093FE3046C7E76348CA
:1094C00000780128F9D1FEF795F8F6E72DE9F04785
:1094D00005465F48007810B14020BDE8F0873F2D79
:1094E00004D005D3FF2D03D02A20F6E73E20F4E771
:1094F00000F072FE0746FF2D03D15148006890F836
:109500003650DFF8389159F825405CB1012C0ED067
:1095100094F838204B4994F83930885C9843885443
:109520000AD00FE0384600F05BFE4320D5E738460E
:1095300000F056FE3D20D0E7434894F83A200178E9
:1095400091430170E16911B12046FEF720FB216AC9
:1095500011B12046FEF73AF8A06A08B1FEF7FCFC0C
:109560004FF00008C4F830803A4E84F8348084F814
:1095700035803078FF2801D2401C3070384600F02A
:109580002FFEFEF703FB00F027FE0746307808B1F8
:10959000401E30702046FDF740FF2F490878401EDE
:1095A000087049F82580A169404691B16069486119
:1095B000D4E905018161294801686161046028A03E
:1095C0002065384600F00CFE20480078012806D0BF
:1095D00007E061698861234960690860EBE7FEF78D
:1095E00009F8002079E710B504463F2804D00FD3CE
:1095F000FF2803D02A2010BD3E2010BD00F0ECFD56
:109600000F49096891F83B4000F0EAFD204610BD83
:1096100000F0E2FD0146094850F8240048B1012855
:1096200022D03F2280F83B20084600F0D9FD0020E0
:1096300010BD084600F0D4FD432010BD701B001083
:1096400050000010640000103600001037000010B9
:1096500032000010330000103800001054000010D9
:109660003F0000005C000010084600F0B9FD3D20FE
:10967000E3E72DE9F0410E46054614463F2803D99D
:10968000FF2D01D02A2006E026B1D048007820B175
:10969000112000E00C20107020E000F09DFD074636
:1096A000FF2D03D1CA48006890F83650C94850F8D9
:1096B0002500432570B101280CD0006D3060FDF706
:1096C0002DFF0546384600F08BFD0020207028460F
:1096D000BDE8F081384600F083FD25700020F7E7F3
:1096E00070B50E46054614463F2803D9FF2D01D01C
:1096F0002A2004E02EB1B548007820B11220107065
:1097000070BD0C20FBE700F067FD0146FF2D03D183
:10971000AF48006890F83650AE4850F82500432511
:1097200040B1012806D00665084600F059FD00202A
:10973000207070BD084600F053FD257070BD10B557
:1097400004463F2801D32A2077E700F045FD014673
:10975000A04850F8240058B101280ED090F83420C9
:1097600013072DD512F0F70280F834200AD00BE051
:10977000084600F035FD46205FE7084600F030FD62
:1097800043205AE7026B22B1084600F029FD002071
:1097900053E7914A90F83A3014782343137010F845
:1097A000383F8E4A4078D45C0443D454084600F0D5
:1097B00017FD8B4800780128E9D1FDF71BFFE6E78C
:1097C000084600F00DFD442037E72DE9F0410C4636
:1097D00005463F2803D9FF2D01D02A2078E744B160
:1097E00000202060606000F0F7FC0146FF2D02D0F1
:1097F00005E009206CE77648006890F83650754817
:1098000050F8250058B1012809D0027CD2070BD0AE
:10981000D0E902760025084600F0E2FC0AE008469E
:1098200000F0DEFC432053E7084600F0D9FC452059
:109830004EE76D1C01CF0028FBD0A8002060701BF4
:1098400080006060002043E770B504463F2804D0E4
:1098500005D3FF2C03D02A2070BD472070BD00F037
:10986000BBFC03465A48FF2C006805D090F8360030
:10987000A04204D1012503E090F83640FAE7002524
:10988000544850F8240058B101280ED090F83820E0
:10989000524C90F83960A15CB143A1540AD00FE05A
:1098A000184600F09DFC482070BD184600F098FC5A
:1098B000432070BD484990F83A400A78A2430A70A4
:1098C00010F8341F41F008010170184600F088FCC0
:1098D0000DB1FDF78FFE002070BD70B50D4604463A
:1098E0003F2803D9FF2C01D02A2070BD2DB100F0F4
:1098F00073FC0646FF2C02D005E0092070BD3448F9
:10990000006890F83640334850F8241051B10129CE
:109910000DD058222846FEF7A9F9304600F060FC29
:10992000002070BD304600F05BFC292070BD304641
:1099300000F056FC432070BD70B5154604463F2824
:1099400003D3FF2C01D02A2001E019B108201070A8
:10995000002070BD00F040FC0146FF2C0AD01D48DD
:1099600050F82400446D084600F03AFC00202870AE
:10997000204670BD16480068F4E770B51D461646CF
:1099800004463F2803D3FF2C01D02A2001E011B167
:109990000820187070BD00F01FFC0146FF2C09D094
:1099A0000C4850F824004665084600F019FC0020D9
:1099B000287070BD06480068F5E7054810B50068D6
:1099C000FCF78AFBBDE81040FF207FE53200001065
:1099D00050000010701B00103600001064000010D2
:1099E0003700001070B504465B480078002821D18C
:1099F0005A48007800281DD1002C1BD000F0ECFB49
:109A000003465748574D016891F8380091F839607E
:109A10002A5CB2432A5405D1534891F83A5002784F
:109A2000AA43027018460C6300F0DAFBBDE87040F0
:109A3000FDF7E0BD70BD70B5474C24780CB15520E2
:109A400070BD464C24780CB1322070BD00B919B1FC
:109A50003B2902D9512070BD1AB13B2A02D95220AC
:109A600070BD2BB14FF47A74A34203D3532070BD61
:109A7000542070BD4FF47A756B43B3FBF4F34FF48D
:109A800061646043C1EB011100EB8100104400EB05
:109A90004001C1EBC01003EBC000FFF7A3FF0020A3
:109AA00070BD10B504463F2801D32A2010BD00F038
:109AB00093FB01462D4850F8240090B1012810D0A6
:109AC000026B9AB10023036390F8342012F0370F31
:109AD00011D022F0370280F83420012280F835209E
:109AE0000BE0084600F07CFB432010BD084600F068
:109AF00077FB502010BD80F8353090F834201207E5
:109B000012D4194A90F83A3014782343137010F89D
:109B1000383F144A4078D45C0443D454084600F0DB
:109B20005FFBFDF767FD02E0084600F059FB0020EF
:109B300010BD10B500F050FB0D490C6800F050FB53
:109B4000204610BD10B5044600F046FB08490C60E5
:109B5000BDE8104000F044BB32000010330000109C
:109B6000500000106400001036000010701B001040
:109B7000600000102DE9F05F9A46DDF828B00C9DDA
:109B800016460F468046012A06D0022E01D08420B8
:109B900034E027B9832031E0B8F1000F04D0F84851
:109BA000007818B18B2029E0822027E0FDF745FFDF
:109BB000F44800210468F4B1E2680260E16089467B
:109BC0002161F1490888401C0880F0490888401E3E
:109BD0000880012084F82500C4E9068784F8246001
:109BE000C4E901AB0B982062FDF73AFF85F80090BD
:109BF0002046BDE8F09FFDF733FF86202870002047
:109C0000F7E7002180F8251080F82410C161416138
:109C10004160DFA2816002620161DA490A68C260C4
:109C20000860D9490888401E0880D8490888401C27
:109C30000880704710B5017DD64A01F0070102EB9C
:109C4000C10200231468C168844203D1116029B1A4
:109C50000B6103E00469E16001B10C61012180F84E
:109C60002510C36003619088401E908010BD70B5C0
:109C700005000C4605D02878642804D08920087097
:109C800025E08A20FBE7BE48007808B18B20F6E784
:109C9000FDF7D3FE95F82500A8B1002601280AD0CB
:109CA000022808D0032803D0FDF7DAFE8D200DE04E
:109CB0002846FFF7BFFF2846FFF7A3FFFDF7D0FEBA
:109CC0002670012070BDFDF7CBFE8720207000209C
:109CD00070BD70B50E000546144605D035B1287824
:109CE000642806D0892002E0882000E08A201070D5
:109CF00022E0A348007808B11120F8E7FDF79DFEA7
:109D000095F82500A0B1012807D0022805D0032826
:109D100003D0FDF7A5FE8D200DE0286A3060FDF729
:109D2000FDFB0546FDF79CFE00202070284670BD17
:109D3000FDF796FE87202070002070BD2DE9F041D0
:109D400005000C4605D02878642804D089200870C6
:109D500034E08A20FBE78A48007808B18B20F6E7D8
:109D6000FDF76BFE95F8250020B30027012811D0E0
:109D700002281BD0032803D0FDF772FE8D201CE0C3
:109D8000854968690968451AFDF76AFE2770284603
:109D9000BDE8F08195F82400AE69022801D106B92A
:109DA000EE69FDF75DFE27703046F1E7FDF758FEDE
:109DB000277003E0FDF754FE872020700020E7E7BE
:109DC00070B505000C4604D02878642803D089209B
:109DD00005E08A2003E06A48007818B18B200870FB
:109DE000002070BDFDF729FE95F825503DB1012DED
:109DF00005D0022D03D0032D01D08D2000E00020DE
:109E00002070FDF72DFE284670BD032280F8252026
:109E1000614A0129126814D0816991B111444161EC
:109E2000017D5C4A01F0070102EBC10100230A68D1
:109E3000086042B1C26010618A88521C8A80036146
:109E40007047C169EAE70122C360F7E770B5050012
:109E50000C4605D02878642804D08920087026E0B4
:109E60008A20FBE74648007808B18B20F6E7FDF72B
:109E7000E4FD95F82500B0B1002601280AD002289B
:109E800008D0032803D0FDF7EBFD8D200EE0284617
:109E9000FFF7D0FE00212846FFF7B7FFFDF7E0FDF2
:109EA0002670012070BDFDF7DBFD872020700020AB
:109EB00070BD2DE9F04116460F4605001C4605D041
:109EC0002878642804D0892018703CE08A20FBE7B9
:109ED0002B48007808B18B20F6E7FDF7AEFD95F82A
:109EE000250060B3012825D0022823D0032803D001
:109EF000FDF7B6FD8D2025E02846FFF79BFE0020EC
:109F000020709FB18F20032F03D0042F07D084200F
:109F10000BE06A684AB12846A968904706E06B687A
:109F20001BB131462846984700E02070FDF798FDA8
:109F300001202DE7FDF794FD8E202070F8E7FDF756
:109F40008FFD87202070002022E714480068FFF76B
:109F5000FBB808B5DFF84480DFF838900E4D6A464C
:109F60000021D8F80000FFF75BF8FDF766FD2868D0
:109F7000401C286000F00700022759F8304023E019
:109F800032000010880000107A00001078000010E5
:109F90003F000000A82800107C0000108400001082
:109FA00060692968E66888420DD12046FFF742FEC5
:109FB00094F8240002280CD084F82570626812B14D
:109FC0002046A16890473446002CE9D1FDF748FDB2
:109FD000C5E701212046FFF718FFEFE770B588B00D
:109FE0004FF420712F48FDF789FC40212E48FDF7E2
:109FF00085FC00202B4904466423421C00EB8000B2
:10A00000154601EBC00092B202EB8202037001EB35
:10A01000C20280F82540C260AFF28C020262A8B290
:10A020000F28EAD300EB800001EBC000037080F83A
:10A030002540AFF2A402C46002621C481D4A0460BD
:10A040001B480480102010801B4801600120FEF78F
:10A0500069FF1A4D28600020FEF764FF184E05AA1C
:10A0600018A130602868FDF78EFA05AA1AA1306899
:10A07000FDF789FA402102910320CDE903401B4AF4
:10A080004FF6FD70CDE900023D23FC320021184857
:10A09000FFF7D0F906AA17A13D20FFF721FB08B072
:10A0A00070BD000028250010A82800107C000010BA
:10A0B0007A00001078000010880000108000001066
:10A0C0008400001075432F4F532D494920546D7261
:10A0D0004C6F636B0000000075432F4F532D4949AF
:10A0E00020546D725369676E616C0000A8270010E0
:10A0F000539F000075432F4F532D494920546D72D3
:10A100000000000040EA01039B0703D009E008C9F2
:10A11000121F08C0042AFAD203E011F8013B00F82C
:10A12000013B521EF9D27047D2B201E000F8012B78
:10A13000491EFBD270470022F6E710B513460A46C7
:10A1400004461946FFF7F0FF204610BD421E12F8E4
:10A15000013F002BFBD111F8013B02F8013B002B22
:10A16000F9D1704730B505462A460B4612F8010B67
:10A1700013F8014B08B1A042F8D01CB1002802D05E
:10A180006D1CF1E7284630BD30B50B460146002076
:10A190002022012409E021FA02F59D4205D303FAA9
:10A1A00002F5491B04FA02F52844151EA2F101022A
:10A1B000F1DC30BD064C074D06E0E06840F00103DD
:10A1C00094E8070098471034AC42F6D3FBF77EFFC3
:10A1D00054A7000074A70000EFF3108072B6704718
:10A1E00080F3108870471D484FF0FF010170002078
:10A1F00080F309881A48012101701A484FF08051F4
:10A20000016062B6FEE717484FF080510160704769
:10A2100014484FF080510160704772B6EFF3098027
:10A2200028B1203880E8F00F0F49096808600F480E
:10A230000F490A7802700C480E490A6802601068DB
:10A2400090E8F00F203080F309884EF0040E62B6DB
:10A2500070474FF0010080F31088704722ED00E056
:10A260003700001004ED00E0500000103400001032
:10A2700035000010580000100FB4084B10B504A9A9
:10A2800002AA039800F01CF8044602A9002000F07E
:10A29000B8F9204610BC5DF814FB000003A60000CE
:10A2A00002E008C8121F08C1002AFAD1704770479F
:10A2B000002001E001C1121F002AFBD170470000FD
:10A2C0002DE9FF4F8BB088460546002606E025287D
:10A2D0000BD0DDE90D1290476D1C761C2878002804
:10A2E000F5D10FB03046BDE8F08F0024A146A2465C
:10A2F0000122AE4900E0044315F8013F203B02FA79
:10A3000003F00842F7D128782A2810D06FF02F02E6
:10A310002878A0F13001092915D809EB890102EB51
:10A32000410144F0020400EB01096D1CF0E758F80C
:10A33000041B5FEA010903D544F40054C9F1000984
:10A3400044F002046D1C28782E2817D115F8010F4F
:10A3500044F004042A280ED06FF02F022878A0F1D0
:10A36000300109290AD80AEB8A0102EB410100EB0E
:10A37000010A6D1CF2E758F804AB6D1C28786C28B4
:10A380000FD006DC4C2817D068280DD06A2814D1CD
:10A3900004E0742810D07A280FD10DE044F40014A2
:10A3A0000AE044F4801401E044F4401469788142E6
:10A3B00002D104F580146D1C6D1C2878692865D0C5
:10A3C00006DC00288DD0632827D0642806D15DE004
:10A3D0006E2808D073282AD0752877D0DDE90D12B1
:10A3E0009047761CE0E0C4F30250022809D003280D
:10A3F0000DD0D8F8001004280DD00E6008F1040824
:10A40000D2E0D8F80010F217C1E90062F6E7D8F8F8
:10A4100000100E80F2E70E70F0E718F8041B8DF8BC
:10A42000001000208DF80100EB46012003E058F8F1
:10A4300004BB4FF0FF3061074FF0000701D40AE082
:10A440007F1C57450DDA8742FADB1BF807100029FD
:10A45000F6D106E07F1C8742FCDB1BF807100029C1
:10A46000F8D1DDE90D23A9EB07008146214600F074
:10A47000B1F83044C61904E0DDE90D121BF8010BF8
:10A4800090477F1EF8D22146484688E058F8040BD2
:10A49000C4F302514FF00A0B032900D100B2042982
:10A4A00000D140B2002802DA40422D2102E021050D
:10A4B00005D52B218DF82410012104E006E0E107E9
:10A4C00010D02021F6E708AF089113E058F8040BEC
:10A4D000C4F302514FF00A0B032900D180B20429C2
:10A4E00000D1C0B20021EEE75946FFF74DFE3031F2
:10A4F00007F8011D0028F7D1ADEB070000F1200B94
:10A50000600702D524F4803401E04FF0010ADA45F7
:10A5100002DDAAEB0B0000E00020824600EB0B01FD
:10A5200008980144A9EB01000A90E00306D4DDE994
:10A530000D2321460A9800F04DF806444FF000091B
:10A5400008E009A911F80900DDE90D12904709F1A9
:10A550000109761C08998945F3DBE0030CD5DDE998
:10A560000D2321460A9800F035F8064404E0DDE9A1
:10A570000D1230209047761CBAF10001AAF1010AB1
:10A58000F5DC05E0DDE90D1217F8010B9047761CAC
:10A59000BBF10001ABF1010BF4DC0A982146DDE9C7
:10A5A0000D2300F005F806446D1C97E6092801000C
:10A5B0002DE9F041044600251E461746880404D4C0
:10A5C00005E039462020B0476D1C641EF9D52846A9
:10A5D000BDE8F0812DE9F041044600251E46904675
:10A5E000C80301D5302700E02027880404D505E002
:10A5F00041463846B0476D1C641EF9D52846BDE873
:10A60000F0810A68531C0B60107070474F535B3029
:10A61000315D2D48575B5630312E30322E30335D50
:10A620002D48444154455B323031352E30392E307F
:10A63000315D2D53575B5630312E30322E30335D25
:10A640002D53444154455B323031372E31302E3258
:10A65000335D000000010002000100030001000260
:10A6600000010004000100020001000300010002DB
:10A6700000010005000100020001000300010002CA
:10A6800000010004000100020001000300010002BB
:10A6900000010006000100020001000300010002A9
:10A6A000000100040001000200010003000100029B
:10A6B000000100050001000200010003000100028A
:10A6C000000100040001000200010003000100027B
:10A6D0000001000700010002000100030001000268
:10A6E000000100040001000200010003000100025B
:10A6F000000100050001000200010003000100024A
:10A70000000100040001000200010003000100023A
:10A710000001000600010002000100030001000228
:10A72000000100040001000200010003000100021A
:10A730000001000500010002000100030001000209
:10A7400000010004000100020001000300010002FA
:10A750000001000074A70000000000108C00000041
:10A76000A0A2000000A800008C0000105C2A0000DD
:10A77000B0A2000000000000000000000000000087
:10A7800000000000000000000000000000000000C9
:10A79000000E27070087930300879303006CDC02F9
:10A7A00000000000000000000000000000000000A9
:10A7B0000000000000000000000000000000000099
:10A7C0000000000000000000000000000000000089
:10A7D0000000000000000000000000000000000079
:10A7E0000000000000000000000000000000000069
:10A7F0000000000000000000000000000000000059
:04000005000060C5D2
:00000001FF
